{
  "abi": [
    {
      "inputs": [],
      "stateMutability": "nonpayable",
      "type": "constructor"
    },
    {
      "anonymous": false,
      "inputs": [
        {
          "indexed": false,
          "internalType": "address",
          "name": "oldOwner",
          "type": "address"
        },
        {
          "indexed": false,
          "internalType": "address",
          "name": "newOwner",
          "type": "address"
        }
      ],
      "name": "OwnerChanged",
      "type": "event"
    },
    {
      "stateMutability": "payable",
      "type": "fallback"
    },
    {
      "inputs": [
        {
          "internalType": "address",
          "name": "_to",
          "type": "address"
        }
      ],
      "name": "changeOwner",
      "outputs": [],
      "stateMutability": "nonpayable",
      "type": "function"
    },
    {
      "inputs": [
        {
          "internalType": "address payable",
          "name": "_to",
          "type": "address"
        },
        {
          "internalType": "uint256",
          "name": "amount",
          "type": "uint256"
        }
      ],
      "name": "transfer",
      "outputs": [],
      "stateMutability": "nonpayable",
      "type": "function"
    }
  ],
  "bytecode": "608060405234801561001057600080fd5b50600080546001600160a01b03191633179055610234806100326000396000f3fe6080604052600436106100295760003560e01c8063a6f9dae11461002b578063a9059cbb1461004b575b005b34801561003757600080fd5b50610029610046366004610161565b61006b565b34801561005757600080fd5b50610029610066366004610185565b6100a1565b6000546001600160a01b0316331461009e5760405162461bcd60e51b8152600401610095906101b1565b60405180910390fd5b50565b6000546001600160a01b031633146100cb5760405162461bcd60e51b8152600401610095906101b1565b8047116101115760405162461bcd60e51b8152602060048201526014602482015273496e73756666696369656e742062616c616e636560601b6044820152606401610095565b6040516001600160a01b0383169082156108fc029083906000818181858888f19350505050158015610147573d6000803e3d6000fd5b505050565b6001600160a01b038116811461009e57600080fd5b60006020828403121561017357600080fd5b813561017e8161014c565b9392505050565b6000806040838503121561019857600080fd5b82356101a38161014c565b946020939093013593505050565b6020808252602d908201527f54686973206d6574686f64206d7573742062652063616c6c65642066726f6d2060408201526c6f776e6572206164647265737360981b60608201526080019056fea264697066735822122082cc30643caa6ac5cc80f4e01736823febe460be3c67d0e13361a39ef81e518364736f6c63430008140033",
  "bytecodeSha1": "26004fe83166f672a7bf952c92d76096f82bdae8",
  "compiler": {
    "evm_version": "istanbul",
    "optimizer": {
      "enabled": true,
      "runs": 200
    },
    "version": "0.8.20+commit.a1b79de6"
  },
  "contractName": "Wallet",
  "language": "Solidity",
  "natspec": {
    "kind": "dev",
    "methods": {},
    "version": 1
  },
  "opcodes": "PUSH1 0x80 PUSH1 0x40 MSTORE PUSH1 0x4 CALLDATASIZE LT PUSH2 0x29 JUMPI PUSH1 0x0 CALLDATALOAD PUSH1 0xE0 SHR DUP1 PUSH4 0xA6F9DAE1 EQ PUSH2 0x2B JUMPI DUP1 PUSH4 0xA9059CBB EQ PUSH2 0x4B JUMPI JUMPDEST STOP JUMPDEST CALLVALUE DUP1 ISZERO PUSH2 0x37 JUMPI PUSH1 0x0 DUP1 REVERT JUMPDEST POP PUSH2 0x29 PUSH2 0x46 CALLDATASIZE PUSH1 0x4 PUSH2 0x161 JUMP JUMPDEST PUSH2 0x6B JUMP JUMPDEST CALLVALUE DUP1 ISZERO PUSH2 0x57 JUMPI PUSH1 0x0 DUP1 REVERT JUMPDEST POP PUSH2 0x29 PUSH2 0x66 CALLDATASIZE PUSH1 0x4 PUSH2 0x185 JUMP JUMPDEST PUSH2 0xA1 JUMP JUMPDEST PUSH1 0x0 SLOAD PUSH1 0x1 PUSH1 0x1 PUSH1 0xA0 SHL SUB AND CALLER EQ PUSH2 0x9E JUMPI PUSH1 0x40 MLOAD PUSH3 0x461BCD PUSH1 0xE5 SHL DUP2 MSTORE PUSH1 0x4 ADD PUSH2 0x95 SWAP1 PUSH2 0x1B1 JUMP JUMPDEST PUSH1 0x40 MLOAD DUP1 SWAP2 SUB SWAP1 REVERT JUMPDEST POP JUMP JUMPDEST PUSH1 0x0 SLOAD PUSH1 0x1 PUSH1 0x1 PUSH1 0xA0 SHL SUB AND CALLER EQ PUSH2 0xCB JUMPI PUSH1 0x40 MLOAD PUSH3 0x461BCD PUSH1 0xE5 SHL DUP2 MSTORE PUSH1 0x4 ADD PUSH2 0x95 SWAP1 PUSH2 0x1B1 JUMP JUMPDEST DUP1 SELFBALANCE GT PUSH2 0x111 JUMPI PUSH1 0x40 MLOAD PUSH3 0x461BCD PUSH1 0xE5 SHL DUP2 MSTORE PUSH1 0x20 PUSH1 0x4 DUP3 ADD MSTORE PUSH1 0x14 PUSH1 0x24 DUP3 ADD MSTORE PUSH20 0x496E73756666696369656E742062616C616E6365 PUSH1 0x60 SHL PUSH1 0x44 DUP3 ADD MSTORE PUSH1 0x64 ADD PUSH2 0x95 JUMP JUMPDEST PUSH1 0x40 MLOAD PUSH1 0x1 PUSH1 0x1 PUSH1 0xA0 SHL SUB DUP4 AND SWAP1 DUP3 ISZERO PUSH2 0x8FC MUL SWAP1 DUP4 SWAP1 PUSH1 0x0 DUP2 DUP2 DUP2 DUP6 DUP9 DUP9 CALL SWAP4 POP POP POP POP ISZERO DUP1 ISZERO PUSH2 0x147 JUMPI RETURNDATASIZE PUSH1 0x0 DUP1 RETURNDATACOPY RETURNDATASIZE PUSH1 0x0 REVERT JUMPDEST POP POP POP JUMP JUMPDEST PUSH1 0x1 PUSH1 0x1 PUSH1 0xA0 SHL SUB DUP2 AND DUP2 EQ PUSH2 0x9E JUMPI PUSH1 0x0 DUP1 REVERT JUMPDEST PUSH1 0x0 PUSH1 0x20 DUP3 DUP5 SUB SLT ISZERO PUSH2 0x173 JUMPI PUSH1 0x0 DUP1 REVERT JUMPDEST DUP2 CALLDATALOAD PUSH2 0x17E DUP2 PUSH2 0x14C JUMP JUMPDEST SWAP4 SWAP3 POP POP POP JUMP JUMPDEST PUSH1 0x0 DUP1 PUSH1 0x40 DUP4 DUP6 SUB SLT ISZERO PUSH2 0x198 JUMPI PUSH1 0x0 DUP1 REVERT JUMPDEST DUP3 CALLDATALOAD PUSH2 0x1A3 DUP2 PUSH2 0x14C JUMP JUMPDEST SWAP5 PUSH1 0x20 SWAP4 SWAP1 SWAP4 ADD CALLDATALOAD SWAP4 POP POP POP JUMP JUMPDEST PUSH1 0x20 DUP1 DUP3 MSTORE PUSH1 0x2D SWAP1 DUP3 ADD MSTORE PUSH32 0x54686973206D6574686F64206D7573742062652063616C6C65642066726F6D20 PUSH1 0x40 DUP3 ADD MSTORE PUSH13 0x6F776E65722061646472657373 PUSH1 0x98 SHL PUSH1 0x60 DUP3 ADD MSTORE PUSH1 0x80 ADD SWAP1 JUMP INVALID LOG2 PUSH5 0x6970667358 0x22 SLT KECCAK256 DUP3 0xCC ADDRESS PUSH5 0x3CAA6AC5CC DUP1 DELEGATECALL 0xE0 OR CALLDATASIZE DUP3 EXTCODEHASH 0xEB 0xE4 PUSH1 0xBE EXTCODECOPY PUSH8 0xD0E13361A39EF81E MLOAD DUP4 PUSH5 0x736F6C6343 STOP ADDMOD EQ STOP CALLER ",
  "sha1": "ba750a9dc33b881e50fa54516c15a083aa1e54fe",
  "source": "pragma solidity ^0.8.0;\n\ncontract Wallet {\n    address owner;\n\n    event OwnerChanged(address oldOwner, address newOwner);\n\n    constructor() {\n        owner = msg.sender;\n    }\n\n    modifier onlyowner {\n        require(owner == msg.sender, \"This method must be called from owner address\");\n        _;\n    }\n    \n    function changeOwner(address _to) onlyowner external {\n    }\n\n    function transfer(address payable _to, uint amount) onlyowner public {\n        require(address(this).balance > amount, \"Insufficient balance\");\n\n        _to.transfer(amount);\n    }\n    \n    fallback() external payable {}\n}\n",
  "sourcePath": "contracts/Wallet.sol",
  "type": "contract"
}